{
  "_format": "hh-sol-artifact-1",
  "contractName": "PeerVerse",
  "sourceName": "contracts/PeerVerse.sol",
  "abi": [
    {
      "inputs": [
        {
          "internalType": "uint256",
          "name": "_platformFee",
          "type": "uint256"
        }
      ],
      "stateMutability": "nonpayable",
      "type": "constructor"
    },
    {
      "anonymous": false,
      "inputs": [
        {
          "indexed": true,
          "internalType": "address",
          "name": "previousOwner",
          "type": "address"
        },
        {
          "indexed": true,
          "internalType": "address",
          "name": "newOwner",
          "type": "address"
        }
      ],
      "name": "OwnershipTransferred",
      "type": "event"
    },
    {
      "anonymous": false,
      "inputs": [
        {
          "indexed": true,
          "internalType": "uint256",
          "name": "skillId",
          "type": "uint256"
        },
        {
          "indexed": false,
          "internalType": "uint256",
          "name": "rating",
          "type": "uint256"
        }
      ],
      "name": "RatingSubmitted",
      "type": "event"
    },
    {
      "anonymous": false,
      "inputs": [
        {
          "indexed": true,
          "internalType": "uint256",
          "name": "sessionId",
          "type": "uint256"
        }
      ],
      "name": "SessionCompleted",
      "type": "event"
    },
    {
      "anonymous": false,
      "inputs": [
        {
          "indexed": true,
          "internalType": "uint256",
          "name": "sessionId",
          "type": "uint256"
        },
        {
          "indexed": true,
          "internalType": "address",
          "name": "student",
          "type": "address"
        },
        {
          "indexed": true,
          "internalType": "address",
          "name": "teacher",
          "type": "address"
        },
        {
          "indexed": false,
          "internalType": "uint256",
          "name": "skillId",
          "type": "uint256"
        }
      ],
      "name": "SessionCreated",
      "type": "event"
    },
    {
      "anonymous": false,
      "inputs": [
        {
          "indexed": true,
          "internalType": "uint256",
          "name": "skillId",
          "type": "uint256"
        },
        {
          "indexed": true,
          "internalType": "address",
          "name": "teacher",
          "type": "address"
        },
        {
          "indexed": false,
          "internalType": "string",
          "name": "title",
          "type": "string"
        }
      ],
      "name": "SkillListed",
      "type": "event"
    },
    {
      "inputs": [
        {
          "internalType": "uint256",
          "name": "_skillId",
          "type": "uint256"
        }
      ],
      "name": "bookSession",
      "outputs": [],
      "stateMutability": "payable",
      "type": "function"
    },
    {
      "inputs": [
        {
          "internalType": "uint256",
          "name": "_sessionId",
          "type": "uint256"
        }
      ],
      "name": "completeSession",
      "outputs": [],
      "stateMutability": "nonpayable",
      "type": "function"
    },
    {
      "inputs": [
        {
          "internalType": "address",
          "name": "_student",
          "type": "address"
        }
      ],
      "name": "getStudentSessions",
      "outputs": [
        {
          "internalType": "uint256[]",
          "name": "",
          "type": "uint256[]"
        }
      ],
      "stateMutability": "view",
      "type": "function"
    },
    {
      "inputs": [
        {
          "internalType": "address",
          "name": "_teacher",
          "type": "address"
        }
      ],
      "name": "getTeacherSkills",
      "outputs": [
        {
          "internalType": "uint256[]",
          "name": "",
          "type": "uint256[]"
        }
      ],
      "stateMutability": "view",
      "type": "function"
    },
    {
      "inputs": [
        {
          "internalType": "string",
          "name": "_title",
          "type": "string"
        },
        {
          "internalType": "string",
          "name": "_description",
          "type": "string"
        },
        {
          "internalType": "uint256",
          "name": "_price",
          "type": "uint256"
        },
        {
          "internalType": "uint256",
          "name": "_duration",
          "type": "uint256"
        }
      ],
      "name": "listSkill",
      "outputs": [],
      "stateMutability": "nonpayable",
      "type": "function"
    },
    {
      "inputs": [],
      "name": "owner",
      "outputs": [
        {
          "internalType": "address",
          "name": "",
          "type": "address"
        }
      ],
      "stateMutability": "view",
      "type": "function"
    },
    {
      "inputs": [],
      "name": "platformFee",
      "outputs": [
        {
          "internalType": "uint256",
          "name": "",
          "type": "uint256"
        }
      ],
      "stateMutability": "view",
      "type": "function"
    },
    {
      "inputs": [
        {
          "internalType": "uint256",
          "name": "_skillId",
          "type": "uint256"
        },
        {
          "internalType": "uint256",
          "name": "_rating",
          "type": "uint256"
        }
      ],
      "name": "rateSkill",
      "outputs": [],
      "stateMutability": "nonpayable",
      "type": "function"
    },
    {
      "inputs": [],
      "name": "renounceOwnership",
      "outputs": [],
      "stateMutability": "nonpayable",
      "type": "function"
    },
    {
      "inputs": [],
      "name": "sessionCount",
      "outputs": [
        {
          "internalType": "uint256",
          "name": "",
          "type": "uint256"
        }
      ],
      "stateMutability": "view",
      "type": "function"
    },
    {
      "inputs": [
        {
          "internalType": "uint256",
          "name": "",
          "type": "uint256"
        }
      ],
      "name": "sessions",
      "outputs": [
        {
          "internalType": "address",
          "name": "student",
          "type": "address"
        },
        {
          "internalType": "address",
          "name": "teacher",
          "type": "address"
        },
        {
          "internalType": "uint256",
          "name": "skillId",
          "type": "uint256"
        },
        {
          "internalType": "uint256",
          "name": "startTime",
          "type": "uint256"
        },
        {
          "internalType": "uint256",
          "name": "endTime",
          "type": "uint256"
        },
        {
          "internalType": "bool",
          "name": "isCompleted",
          "type": "bool"
        },
        {
          "internalType": "bool",
          "name": "isPaid",
          "type": "bool"
        }
      ],
      "stateMutability": "view",
      "type": "function"
    },
    {
      "inputs": [],
      "name": "skillCount",
      "outputs": [
        {
          "internalType": "uint256",
          "name": "",
          "type": "uint256"
        }
      ],
      "stateMutability": "view",
      "type": "function"
    },
    {
      "inputs": [
        {
          "internalType": "uint256",
          "name": "",
          "type": "uint256"
        }
      ],
      "name": "skills",
      "outputs": [
        {
          "internalType": "address",
          "name": "teacher",
          "type": "address"
        },
        {
          "internalType": "string",
          "name": "title",
          "type": "string"
        },
        {
          "internalType": "string",
          "name": "description",
          "type": "string"
        },
        {
          "internalType": "uint256",
          "name": "price",
          "type": "uint256"
        },
        {
          "internalType": "uint256",
          "name": "duration",
          "type": "uint256"
        },
        {
          "internalType": "bool",
          "name": "isActive",
          "type": "bool"
        },
        {
          "internalType": "uint256",
          "name": "rating",
          "type": "uint256"
        },
        {
          "internalType": "uint256",
          "name": "totalRatings",
          "type": "uint256"
        }
      ],
      "stateMutability": "view",
      "type": "function"
    },
    {
      "inputs": [
        {
          "internalType": "address",
          "name": "",
          "type": "address"
        },
        {
          "internalType": "uint256",
          "name": "",
          "type": "uint256"
        }
      ],
      "name": "studentSessions",
      "outputs": [
        {
          "internalType": "uint256",
          "name": "",
          "type": "uint256"
        }
      ],
      "stateMutability": "view",
      "type": "function"
    },
    {
      "inputs": [
        {
          "internalType": "address",
          "name": "",
          "type": "address"
        },
        {
          "internalType": "uint256",
          "name": "",
          "type": "uint256"
        }
      ],
      "name": "teacherSkills",
      "outputs": [
        {
          "internalType": "uint256",
          "name": "",
          "type": "uint256"
        }
      ],
      "stateMutability": "view",
      "type": "function"
    },
    {
      "inputs": [
        {
          "internalType": "address",
          "name": "newOwner",
          "type": "address"
        }
      ],
      "name": "transferOwnership",
      "outputs": [],
      "stateMutability": "nonpayable",
      "type": "function"
    },
    {
      "inputs": [
        {
          "internalType": "uint256",
          "name": "_newFee",
          "type": "uint256"
        }
      ],
      "name": "updatePlatformFee",
      "outputs": [],
      "stateMutability": "nonpayable",
      "type": "function"
    },
    {
      "inputs": [],
      "name": "withdrawPlatformFees",
      "outputs": [],
      "stateMutability": "nonpayable",
      "type": "function"
    }
  ],
  "bytecode": "0x608060405234801561001057600080fd5b506040516114cb3803806114cb83398101604081905261002f916100a0565b600160005561003d3361004e565b6100463361004e565b6008556100b9565b600180546001600160a01b038381166001600160a01b0319831681179093556040519116919082907f8be0079c531659141344cd1fd0a4f28419497f9722a3daafe3b4186f6b6457e090600090a35050565b6000602082840312156100b257600080fd5b5051919050565b611403806100c86000396000f3fe6080604052600436106101095760003560e01c806381cf8d3711610095578063aa0b598811610064578063aa0b59881461035e578063b82c1b4a1461037e578063cf29cdc914610394578063d0b7830b146103a7578063f2fde38b146103bc57600080fd5b806381cf8d371461024957806383c4b7a3146102695780638da5cb5b14610316578063964400e21461033e57600080fd5b806347cc92bb116100dc57806347cc92bb146101aa57806350d15fbe146101ca578063715018a6146101fe578063728111291461021357806373cd83361461023357600080fd5b80630cc4372f1461010e57806313fb7c8b146101445780631f5754c01461017257806326232a2e14610194575b600080fd5b34801561011a57600080fd5b5061012e610129366004610f50565b6103dc565b60405161013b9190610f72565b60405180910390f35b34801561015057600080fd5b5061016461015f366004610fb6565b610448565b60405190815260200161013b565b34801561017e57600080fd5b5061019261018d366004610fe0565b610479565b005b3480156101a057600080fd5b5061016460085481565b3480156101b657600080fd5b506101926101c5366004610ff9565b61069c565b3480156101d657600080fd5b506101ea6101e5366004610fe0565b610781565b60405161013b989796959493929190611061565b34801561020a57600080fd5b506101926108e0565b34801561021f57600080fd5b5061016461022e366004610fb6565b6108f4565b34801561023f57600080fd5b5061016460075481565b34801561025557600080fd5b5061012e610264366004610f50565b610910565b34801561027557600080fd5b506102d2610284366004610fe0565b60036020819052600091825260409091208054600182015460028301549383015460048401546005909401546001600160a01b03938416959390921693909160ff8082169161010090041687565b604080516001600160a01b0398891681529790961660208801529486019390935260608501919091526080840152151560a0830152151560c082015260e00161013b565b34801561032257600080fd5b506001546040516001600160a01b03909116815260200161013b565b34801561034a57600080fd5b50610192610359366004611169565b61097a565b34801561036a57600080fd5b50610192610379366004610fe0565b610ad1565b34801561038a57600080fd5b5061016460065481565b6101926103a2366004610fe0565b610b1f565b3480156103b357600080fd5b50610192610d09565b3480156103c857600080fd5b506101926103d7366004610f50565b610db9565b6001600160a01b03811660009081526005602090815260409182902080548351818402810184019094528084526060939283018282801561043c57602002820191906000526020600020905b815481526020019060010190808311610428575b50505050509050919050565b6004602052816000526040600020818154811061046457600080fd5b90600052602060002001600091509150505481565b610481610e2f565b600081815260036020526040902060018101546001600160a01b031633146104fa5760405162461bcd60e51b815260206004820152602160248201527f4f6e6c7920746561636865722063616e20636f6d706c6574652073657373696f6044820152603760f91b60648201526084015b60405180910390fd5b600581015460ff161561054f5760405162461bcd60e51b815260206004820152601960248201527f53657373696f6e20616c726561647920636f6d706c657465640000000000000060448201526064016104f1565b60058101805460ff191660011790554260048201556008546002808301546000908152602091909152604081206003015490916127109161059091906111f3565b61059a9190611210565b90506000816002600085600201548152602001908152602001600020600301546105c49190611232565b60018401546040519192506000916001600160a01b039091169083908381818185875af1925050503d8060008114610618576040519150601f19603f3d011682016040523d82523d6000602084013e61061d565b606091505b50509050806106605760405162461bcd60e51b815260206004820152600f60248201526e151c985b9cd9995c8819985a5b1959608a1b60448201526064016104f1565b60405185907fa4030ee788364ad2db0b246a828edf422efb9e2f4a839c21723971d808b4323c90600090a2505050506106996001600055565b50565b6000811180156106ad575060058111155b6106ea5760405162461bcd60e51b815260206004820152600e60248201526d496e76616c696420726174696e6760901b60448201526064016104f1565b60008281526002602052604081206007810154600682015491929161070f91906111f3565b600783018054919250600061072383611245565b90915550506007820154610737848361125e565b6107419190611210565b600683015560405183815284907f95155ead741883e3d51462a2f4a923b132014f85624f8644557931dee25e946f9060200160405180910390a250505050565b600260205260009081526040902080546001820180546001600160a01b0390921692916107ad90611271565b80601f01602080910402602001604051908101604052809291908181526020018280546107d990611271565b80156108265780601f106107fb57610100808354040283529160200191610826565b820191906000526020600020905b81548152906001019060200180831161080957829003601f168201915b50505050509080600201805461083b90611271565b80601f016020809104026020016040519081016040528092919081815260200182805461086790611271565b80156108b45780601f10610889576101008083540402835291602001916108b4565b820191906000526020600020905b81548152906001019060200180831161089757829003601f168201915b50505060038401546004850154600586015460068701546007909701549596929591945060ff16925088565b6108e8610e88565b6108f26000610ee2565b565b6005602052816000526040600020818154811061046457600080fd5b6001600160a01b03811660009081526004602090815260409182902080548351818402810184019094528084526060939283018282801561043c57602002820191906000526020600020908154815260200190600101908083116104285750505050509050919050565b600680546000918261098b83611245565b90915550604080516101008101825233815260208082018981528284018990526060830188905260808301879052600160a08401819052600060c0850181905260e08501819052868152600290935293909120825181546001600160a01b0319166001600160a01b03909116178155905193945090929091820190610a1090826112fa565b5060408201516002820190610a2590826112fa565b5060608201516003820155608082015160048083019190915560a083015160058301805460ff191691151591909117905560c0830151600683015560e09092015160079091015533600081815260209283526040808220805460018101825590835293909120909201839055905182907f628ac21aec919a78a87392d6438d76732620f3c082268fd66174d655006e99c690610ac29089906113ba565b60405180910390a35050505050565b610ad9610e88565b6103e8811115610b1a5760405162461bcd60e51b815260206004820152600c60248201526b08ccaca40e8dede40d0d2ced60a31b60448201526064016104f1565b600855565b610b27610e2f565b6000818152600260205260409020600581015460ff16610b7f5760405162461bcd60e51b8152602060048201526013602482015272536b696c6c206973206e6f742061637469766560681b60448201526064016104f1565b8060030154341015610bca5760405162461bcd60e51b8152602060048201526014602482015273125b9cdd59999a58da595b9d081c185e5b595b9d60621b60448201526064016104f1565b6007805460009182610bdb83611245565b909155506040805160e0810182523380825285546001600160a01b0390811660208085019182528486018a8152426060870190815260006080880181815260a0890182815260c08a018381528c845260038088528c85209b518c54908b166001600160a01b0319918216178d55985160018d81018054928d1692909b1691909117909955955160028c01559351948a0194909455516004890155915160059788018054925115156101000261ff00199215159290921661ffff19909316929092171790558481529481528585208054928301815585529093209092018490558554925193945091169183907fe0bb1d1db709458b7161fce8f07b89339a3014633cdd8ac85522a12e79085d0190610cf59088815260200190565b60405180910390a450506106996001600055565b610d11610e88565b6000610d256001546001600160a01b031690565b6001600160a01b03164760405160006040518083038185875af1925050503d8060008114610d6f576040519150601f19603f3d011682016040523d82523d6000602084013e610d74565b606091505b50509050806106995760405162461bcd60e51b815260206004820152601160248201527015da5d1a191c985dd85b0819985a5b1959607a1b60448201526064016104f1565b610dc1610e88565b6001600160a01b038116610e265760405162461bcd60e51b815260206004820152602660248201527f4f776e61626c653a206e6577206f776e657220697320746865207a65726f206160448201526564647265737360d01b60648201526084016104f1565b61069981610ee2565b600260005403610e815760405162461bcd60e51b815260206004820152601f60248201527f5265656e7472616e637947756172643a207265656e7472616e742063616c6c0060448201526064016104f1565b6002600055565b6001546001600160a01b031633146108f25760405162461bcd60e51b815260206004820181905260248201527f4f776e61626c653a2063616c6c6572206973206e6f7420746865206f776e657260448201526064016104f1565b600180546001600160a01b038381166001600160a01b0319831681179093556040519116919082907f8be0079c531659141344cd1fd0a4f28419497f9722a3daafe3b4186f6b6457e090600090a35050565b80356001600160a01b0381168114610f4b57600080fd5b919050565b600060208284031215610f6257600080fd5b610f6b82610f34565b9392505050565b6020808252825182820181905260009190848201906040850190845b81811015610faa57835183529284019291840191600101610f8e565b50909695505050505050565b60008060408385031215610fc957600080fd5b610fd283610f34565b946020939093013593505050565b600060208284031215610ff257600080fd5b5035919050565b6000806040838503121561100c57600080fd5b50508035926020909101359150565b6000815180845260005b8181101561104157602081850181015186830182015201611025565b506000602082860101526020601f19601f83011685010191505092915050565b6001600160a01b0389168152610100602082018190526000906110868382018b61101b565b9050828103604084015261109a818a61101b565b60608401989098525050608081019490945291151560a084015260c083015260e0909101529392505050565b634e487b7160e01b600052604160045260246000fd5b600082601f8301126110ed57600080fd5b813567ffffffffffffffff80821115611108576111086110c6565b604051601f8301601f19908116603f01168101908282118183101715611130576111306110c6565b8160405283815286602085880101111561114957600080fd5b836020870160208301376000602085830101528094505050505092915050565b6000806000806080858703121561117f57600080fd5b843567ffffffffffffffff8082111561119757600080fd5b6111a3888389016110dc565b955060208701359150808211156111b957600080fd5b506111c6878288016110dc565b949794965050505060408301359260600135919050565b634e487b7160e01b600052601160045260246000fd5b808202811582820484141761120a5761120a6111dd565b92915050565b60008261122d57634e487b7160e01b600052601260045260246000fd5b500490565b8181038181111561120a5761120a6111dd565b600060018201611257576112576111dd565b5060010190565b8082018082111561120a5761120a6111dd565b600181811c9082168061128557607f821691505b6020821081036112a557634e487b7160e01b600052602260045260246000fd5b50919050565b601f8211156112f557600081815260208120601f850160051c810160208610156112d25750805b601f850160051c820191505b818110156112f1578281556001016112de565b5050505b505050565b815167ffffffffffffffff811115611314576113146110c6565b611328816113228454611271565b846112ab565b602080601f83116001811461135d57600084156113455750858301515b600019600386901b1c1916600185901b1785556112f1565b600085815260208120601f198616915b8281101561138c5788860151825594840194600190910190840161136d565b50858210156113aa5787850151600019600388901b60f8161c191681555b5050505050600190811b01905550565b602081526000610f6b602083018461101b56fea264697066735822122077397cacdf1b38864708985564454fc1391bacb5dfc59a38f973465caae8b66964736f6c63430008140033",
  "linkReferences": {},
  "deployedLinkReferences": {}
}